{
  "_format": "hh-sol-artifact-1",
  "contractName": "Grainy",
  "sourceName": "contracts/Grainy.sol",
  "abi": [
    {
      "inputs": [
        {
          "internalType": "address",
          "name": "",
          "type": "address"
        }
      ],
      "name": "address_details",
      "outputs": [
        {
          "internalType": "address",
          "name": "sender",
          "type": "address"
        },
        {
          "internalType": "address",
          "name": "receiver",
          "type": "address"
        },
        {
          "internalType": "string",
          "name": "eventName",
          "type": "string"
        },
        {
          "internalType": "string",
          "name": "placeAddress",
          "type": "string"
        },
        {
          "internalType": "uint256",
          "name": "phoneNo",
          "type": "uint256"
        },
        {
          "internalType": "bool",
          "name": "donated",
          "type": "bool"
        }
      ],
      "stateMutability": "view",
      "type": "function"
    },
    {
      "inputs": [],
      "name": "donatedItemsCount",
      "outputs": [
        {
          "internalType": "uint256",
          "name": "",
          "type": "uint256"
        }
      ],
      "stateMutability": "view",
      "type": "function"
    },
    {
      "inputs": [],
      "name": "getDeliveredItems",
      "outputs": [
        {
          "components": [
            {
              "internalType": "address",
              "name": "sender",
              "type": "address"
            },
            {
              "internalType": "address",
              "name": "receiver",
              "type": "address"
            },
            {
              "internalType": "string",
              "name": "eventName",
              "type": "string"
            },
            {
              "internalType": "string",
              "name": "placeAddress",
              "type": "string"
            },
            {
              "internalType": "uint256",
              "name": "phoneNo",
              "type": "uint256"
            },
            {
              "internalType": "bool",
              "name": "donated",
              "type": "bool"
            }
          ],
          "internalType": "struct Grainy.details[]",
          "name": "",
          "type": "tuple[]"
        }
      ],
      "stateMutability": "view",
      "type": "function"
    },
    {
      "inputs": [],
      "name": "getListedItems",
      "outputs": [
        {
          "components": [
            {
              "internalType": "address",
              "name": "sender",
              "type": "address"
            },
            {
              "internalType": "address",
              "name": "receiver",
              "type": "address"
            },
            {
              "internalType": "string",
              "name": "eventName",
              "type": "string"
            },
            {
              "internalType": "string",
              "name": "placeAddress",
              "type": "string"
            },
            {
              "internalType": "uint256",
              "name": "phoneNo",
              "type": "uint256"
            },
            {
              "internalType": "bool",
              "name": "donated",
              "type": "bool"
            }
          ],
          "internalType": "struct Grainy.details[]",
          "name": "",
          "type": "tuple[]"
        }
      ],
      "stateMutability": "view",
      "type": "function"
    },
    {
      "inputs": [
        {
          "internalType": "string",
          "name": "_eventName",
          "type": "string"
        },
        {
          "internalType": "string",
          "name": "_placeAddress",
          "type": "string"
        },
        {
          "internalType": "uint256",
          "name": "_phoneNo",
          "type": "uint256"
        }
      ],
      "name": "listItem",
      "outputs": [],
      "stateMutability": "nonpayable",
      "type": "function"
    },
    {
      "inputs": [],
      "name": "listedItemsCount",
      "outputs": [
        {
          "internalType": "uint256",
          "name": "",
          "type": "uint256"
        }
      ],
      "stateMutability": "view",
      "type": "function"
    },
    {
      "inputs": [
        {
          "internalType": "address",
          "name": "user",
          "type": "address"
        }
      ],
      "name": "removeItem",
      "outputs": [],
      "stateMutability": "nonpayable",
      "type": "function"
    }
  ],
  "bytecode": "0x608060405234801561001057600080fd5b506119a9806100206000396000f3fe608060405234801561001057600080fd5b506004361061007d5760003560e01c8063444066171161005b57806344406617146100d8578063caf50690146100f6578063ccb4918d14610114578063e600db12146101325761007d565b8063014ce47b146100825780630562021c146100a0578063399fa840146100bc575b600080fd5b61008a610167565b6040516100979190610e97565b60405180910390f35b6100ba60048036038101906100b59190611038565b61016d565b005b6100d660048036038101906100d19190611121565b6104a7565b005b6100e0610601565b6040516100ed9190611358565b60405180910390f35b6100fe610956565b60405161010b9190611358565b60405180910390f35b61011c610c7b565b6040516101299190610e97565b60405180910390f35b61014c60048036038101906101479190611121565b610c81565b60405161015e969594939291906113e2565b60405180910390f35b60015481565b6040518060c001604052803373ffffffffffffffffffffffffffffffffffffffff168152602001600073ffffffffffffffffffffffffffffffffffffffff16815260200184815260200183815260200182815260200160001515815250600260003373ffffffffffffffffffffffffffffffffffffffff1673ffffffffffffffffffffffffffffffffffffffff16815260200190815260200160002060008201518160000160006101000a81548173ffffffffffffffffffffffffffffffffffffffff021916908373ffffffffffffffffffffffffffffffffffffffff16021790555060208201518160010160006101000a81548173ffffffffffffffffffffffffffffffffffffffff021916908373ffffffffffffffffffffffffffffffffffffffff16021790555060408201518160020190816102ac919061165d565b5060608201518160030190816102c2919061165d565b506080820151816004015560a08201518160050160006101000a81548160ff0219169083151502179055509050506003600260003373ffffffffffffffffffffffffffffffffffffffff1673ffffffffffffffffffffffffffffffffffffffff16815260200190815260200160002090806001815401808255809150506001900390600052602060002090600602016000909190919091506000820160009054906101000a900473ffffffffffffffffffffffffffffffffffffffff168160000160006101000a81548173ffffffffffffffffffffffffffffffffffffffff021916908373ffffffffffffffffffffffffffffffffffffffff1602179055506001820160009054906101000a900473ffffffffffffffffffffffffffffffffffffffff168160010160006101000a81548173ffffffffffffffffffffffffffffffffffffffff021916908373ffffffffffffffffffffffffffffffffffffffff1602179055506002820181600201908161043c9190611745565b50600382018160030190816104519190611745565b50600482015481600401556005820160009054906101000a900460ff168160050160006101000a81548160ff021916908315150217905550505060008081548092919061049d9061185c565b9190505550505050565b60005b6003805490508110156105e5578173ffffffffffffffffffffffffffffffffffffffff16600382815481106104e2576104e16118a4565b5b906000526020600020906006020160000160009054906101000a900473ffffffffffffffffffffffffffffffffffffffff1673ffffffffffffffffffffffffffffffffffffffff16036105d2573360038281548110610544576105436118a4565b5b906000526020600020906006020160010160006101000a81548173ffffffffffffffffffffffffffffffffffffffff021916908373ffffffffffffffffffffffffffffffffffffffff1602179055506001600382815481106105a9576105a86118a4565b5b906000526020600020906006020160050160006101000a81548160ff0219169083151502179055505b80806105dd9061185c565b9150506104aa565b50600160008154809291906105f99061185c565b919050555050565b6060600060015411610648576040517f08c379a000000000000000000000000000000000000000000000000000000000815260040161063f9061191f565b60405180910390fd5b600060015467ffffffffffffffff81111561066657610665610ee1565b5b60405190808252806020026020018201604052801561069f57816020015b61068c610e1a565b8152602001906001900390816106845790505b5090506000805b60038054905081101561094d57600381815481106106c7576106c66118a4565b5b906000526020600020906006020160050160009054906101000a900460ff161561093a57600381815481106106ff576106fe6118a4565b5b90600052602060002090600602016040518060c00160405290816000820160009054906101000a900473ffffffffffffffffffffffffffffffffffffffff1673ffffffffffffffffffffffffffffffffffffffff1673ffffffffffffffffffffffffffffffffffffffff1681526020016001820160009054906101000a900473ffffffffffffffffffffffffffffffffffffffff1673ffffffffffffffffffffffffffffffffffffffff1673ffffffffffffffffffffffffffffffffffffffff1681526020016002820180546107d490611480565b80601f016020809104026020016040519081016040528092919081815260200182805461080090611480565b801561084d5780601f106108225761010080835404028352916020019161084d565b820191906000526020600020905b81548152906001019060200180831161083057829003601f168201915b5050505050815260200160038201805461086690611480565b80601f016020809104026020016040519081016040528092919081815260200182805461089290611480565b80156108df5780601f106108b4576101008083540402835291602001916108df565b820191906000526020600020905b8154815290600101906020018083116108c257829003601f168201915b50505050508152602001600482015481526020016005820160009054906101000a900460ff1615151515815250508383815181106109205761091f6118a4565b5b602002602001018190525081806109369061185c565b9250505b80806109459061185c565b9150506106a6565b50819250505090565b6060600060015460038054905061096d919061193f565b905060008167ffffffffffffffff81111561098b5761098a610ee1565b5b6040519080825280602002602001820160405280156109c457816020015b6109b1610e1a565b8152602001906001900390816109a95790505b5090506000805b600380549050811015610c7157600381815481106109ec576109eb6118a4565b5b906000526020600020906006020160050160009054906101000a900460ff16610c5e5760038181548110610a2357610a226118a4565b5b90600052602060002090600602016040518060c00160405290816000820160009054906101000a900473ffffffffffffffffffffffffffffffffffffffff1673ffffffffffffffffffffffffffffffffffffffff1673ffffffffffffffffffffffffffffffffffffffff1681526020016001820160009054906101000a900473ffffffffffffffffffffffffffffffffffffffff1673ffffffffffffffffffffffffffffffffffffffff1673ffffffffffffffffffffffffffffffffffffffff168152602001600282018054610af890611480565b80601f0160208091040260200160405190810160405280929190818152602001828054610b2490611480565b8015610b715780601f10610b4657610100808354040283529160200191610b71565b820191906000526020600020905b815481529060010190602001808311610b5457829003601f168201915b50505050508152602001600382018054610b8a90611480565b80601f0160208091040260200160405190810160405280929190818152602001828054610bb690611480565b8015610c035780601f10610bd857610100808354040283529160200191610c03565b820191906000526020600020905b815481529060010190602001808311610be657829003601f168201915b50505050508152602001600482015481526020016005820160009054906101000a900460ff161515151581525050838381518110610c4457610c436118a4565b5b60200260200101819052508180610c5a9061185c565b9250505b8080610c699061185c565b9150506109cb565b5081935050505090565b60005481565b60026020528060005260406000206000915090508060000160009054906101000a900473ffffffffffffffffffffffffffffffffffffffff16908060010160009054906101000a900473ffffffffffffffffffffffffffffffffffffffff1690806002018054610cf090611480565b80601f0160208091040260200160405190810160405280929190818152602001828054610d1c90611480565b8015610d695780601f10610d3e57610100808354040283529160200191610d69565b820191906000526020600020905b815481529060010190602001808311610d4c57829003601f168201915b505050505090806003018054610d7e90611480565b80601f0160208091040260200160405190810160405280929190818152602001828054610daa90611480565b8015610df75780601f10610dcc57610100808354040283529160200191610df7565b820191906000526020600020905b815481529060010190602001808311610dda57829003601f168201915b5050505050908060040154908060050160009054906101000a900460ff16905086565b6040518060c00160405280600073ffffffffffffffffffffffffffffffffffffffff168152602001600073ffffffffffffffffffffffffffffffffffffffff1681526020016060815260200160608152602001600081526020016000151581525090565b6000819050919050565b610e9181610e7e565b82525050565b6000602082019050610eac6000830184610e88565b92915050565b6000604051905090565b600080fd5b600080fd5b600080fd5b600080fd5b6000601f19601f8301169050919050565b7f4e487b7100000000000000000000000000000000000000000000000000000000600052604160045260246000fd5b610f1982610ed0565b810181811067ffffffffffffffff82111715610f3857610f37610ee1565b5b80604052505050565b6000610f4b610eb2565b9050610f578282610f10565b919050565b600067ffffffffffffffff821115610f7757610f76610ee1565b5b610f8082610ed0565b9050602081019050919050565b82818337600083830152505050565b6000610faf610faa84610f5c565b610f41565b905082815260208101848484011115610fcb57610fca610ecb565b5b610fd6848285610f8d565b509392505050565b600082601f830112610ff357610ff2610ec6565b5b8135611003848260208601610f9c565b91505092915050565b61101581610e7e565b811461102057600080fd5b50565b6000813590506110328161100c565b92915050565b60008060006060848603121561105157611050610ebc565b5b600084013567ffffffffffffffff81111561106f5761106e610ec1565b5b61107b86828701610fde565b935050602084013567ffffffffffffffff81111561109c5761109b610ec1565b5b6110a886828701610fde565b92505060406110b986828701611023565b9150509250925092565b600073ffffffffffffffffffffffffffffffffffffffff82169050919050565b60006110ee826110c3565b9050919050565b6110fe816110e3565b811461110957600080fd5b50565b60008135905061111b816110f5565b92915050565b60006020828403121561113757611136610ebc565b5b60006111458482850161110c565b91505092915050565b600081519050919050565b600082825260208201905092915050565b6000819050602082019050919050565b611183816110e3565b82525050565b600081519050919050565b600082825260208201905092915050565b60005b838110156111c35780820151818401526020810190506111a8565b60008484015250505050565b60006111da82611189565b6111e48185611194565b93506111f48185602086016111a5565b6111fd81610ed0565b840191505092915050565b61121181610e7e565b82525050565b60008115159050919050565b61122c81611217565b82525050565b600060c08301600083015161124a600086018261117a565b50602083015161125d602086018261117a565b506040830151848203604086015261127582826111cf565b9150506060830151848203606086015261128f82826111cf565b91505060808301516112a46080860182611208565b5060a08301516112b760a0860182611223565b508091505092915050565b60006112ce8383611232565b905092915050565b6000602082019050919050565b60006112ee8261114e565b6112f88185611159565b93508360208202850161130a8561116a565b8060005b85811015611346578484038952815161132785826112c2565b9450611332836112d6565b925060208a0199505060018101905061130e565b50829750879550505050505092915050565b6000602082019050818103600083015261137281846112e3565b905092915050565b611383816110e3565b82525050565b600082825260208201905092915050565b60006113a582611189565b6113af8185611389565b93506113bf8185602086016111a5565b6113c881610ed0565b840191505092915050565b6113dc81611217565b82525050565b600060c0820190506113f7600083018961137a565b611404602083018861137a565b8181036040830152611416818761139a565b9050818103606083015261142a818661139a565b90506114396080830185610e88565b61144660a08301846113d3565b979650505050505050565b7f4e487b7100000000000000000000000000000000000000000000000000000000600052602260045260246000fd5b6000600282049050600182168061149857607f821691505b6020821081036114ab576114aa611451565b5b50919050565b60008190508160005260206000209050919050565b60006020601f8301049050919050565b600082821b905092915050565b6000600883026115137fffffffffffffffffffffffffffffffffffffffffffffffffffffffffffffffff826114d6565b61151d86836114d6565b95508019841693508086168417925050509392505050565b6000819050919050565b600061155a61155561155084610e7e565b611535565b610e7e565b9050919050565b6000819050919050565b6115748361153f565b61158861158082611561565b8484546114e3565b825550505050565b600090565b61159d611590565b6115a881848461156b565b505050565b5b818110156115cc576115c1600082611595565b6001810190506115ae565b5050565b601f821115611611576115e2816114b1565b6115eb846114c6565b810160208510156115fa578190505b61160e611606856114c6565b8301826115ad565b50505b505050565b600082821c905092915050565b600061163460001984600802611616565b1980831691505092915050565b600061164d8383611623565b9150826002028217905092915050565b61166682611189565b67ffffffffffffffff81111561167f5761167e610ee1565b5b6116898254611480565b6116948282856115d0565b600060209050601f8311600181146116c757600084156116b5578287015190505b6116bf8582611641565b865550611727565b601f1984166116d5866114b1565b60005b828110156116fd578489015182556001820191506020850194506020810190506116d8565b8683101561171a5784890151611716601f891682611623565b8355505b6001600288020188555050505b505050505050565b60008154905061173e81611480565b9050919050565b81810361175357505061182b565b61175c8261172f565b67ffffffffffffffff81111561177557611774610ee1565b5b61177f8254611480565b61178a8282856115d0565b6000601f8311600181146117b957600084156117a7578287015490505b6117b18582611641565b865550611824565b601f1984166117c7876114b1565b96506117d2866114b1565b60005b828110156117fa578489015482556001820191506001850194506020810190506117d5565b868310156118175784890154611813601f891682611623565b8355505b6001600288020188555050505b5050505050505b565b7f4e487b7100000000000000000000000000000000000000000000000000000000600052601160045260246000fd5b600061186782610e7e565b91507fffffffffffffffffffffffffffffffffffffffffffffffffffffffffffffffff82036118995761189861182d565b5b600182019050919050565b7f4e487b7100000000000000000000000000000000000000000000000000000000600052603260045260246000fd5b7f4e6f7468696e6720746f20646973706c61790000000000000000000000000000600082015250565b6000611909601283611389565b9150611914826118d3565b602082019050919050565b60006020820190508181036000830152611938816118fc565b9050919050565b600061194a82610e7e565b915061195583610e7e565b925082820390508181111561196d5761196c61182d565b5b9291505056fea2646970667358221220d8f3144ddd6c20001792f80d01fe9f53822776a5414611d340c8d4b0dca354de64736f6c63430008110033",
  "linkReferences": {},
  "deployedLinkReferences": {}
}